:100000000C94C2030C940B040C940B040C940B047E
:100010000C940B040C940B040C940B040C940B0424
:100020000C940B040C940B040C9492080C94370958
:100030000C9473170C940B040C940B040C940B0489
:100040000C940B040C940B040C940B040C940B04F4
:100050000C940B040C94CF170C940B040C940B040D
:100060000C940B040C940B040C940B040C940B04D4
:100070000C940B040C940B040C940B040C940B04C4
:100080000C940B040C940B040C940B040C940B04B4
:100090000C940B040C940B040000E0000000E6003C
:1000A00000E100000000E500292B351E14041D00AE
:1000B00000E03A1F1A161B003D3C3B2008070600D3
:1000C0000A172221150919053E314243002A282C1E
:1000D0000B1C2324180D10113F302E250C0E36005A
:1000E00000404126120F3700342F2D2713330038DC
:1000F000005C4C445F595351625D4945605A544F0E
:10010000635E4B4E615B555652004A4D57584850FE
:10011000E2000046470000E70A00203C67686F7372
:10012000740025303862003A200025303258000A29
:10013000722F632030313233343536370A000D0ADE
:10014000002530325800626F756E6365213A2000D9
:100150000A002530325800206D6F64733A20002069
:100160000025303258006B6579733A200000010099
:1001700000BC021200020000E2015400210000F461
:100180000109002200007C0240002102000D02094A
:100190000022020067021500210300260209002246
:1001A000030036023100030000DE010401030904EC
:1001B000D0010C02030904BA0114140322004D00FB
:1001C0006F00640065006C0020004D0022000000FC
:1001D0000C032200490042004D00220000000403ED
:1001E000090409025400030100A0320904000001BF
:1001F00003010100092111010001224000070581CE
:100200000308000A0904020001030000000921118B
:1002100001000122150007058303200001090403E2
:100220000001030000000921110100012231000733
:1002300005840308000A05010980A1018502150152
:1002400026B700190129B7751095018100C0050C6A
:100250000901A10185031501269C0219012A9C02AE
:10026000751095018100C00631FF0974A15375080E
:10027000150026FF00952009758102C005010906B9
:10028000A10175019508050719E029E71500250169
:10029000810295017508810395057501050819010D
:1002A00029059102950175039103950675081500BE
:1002B00026FF000507190029FF8100C01201000276
:1002C00000000020EDFE576001000102000101C1A5
:1002D000020001C12601C10600000A002530325883
:1002E00020006B6579626F6172645F7265706F7216
:1002F000743A20004C45443A20253032580A0064B4
:100300006F6E652E0A00626F6F746D61676963209E
:100310007363616E3A202E2E2E20003F00433E2054
:10032000004C25640A000A092D20436F6E736F6C20
:1003300065202D0A4553432F713A09717569740A76
:10034000000A092D204D61676963202D0A643A096E
:1003500064656275670A783A096465627567206D3D
:1003600061747269780A6B3A096465627567206B1B
:100370006579626F6172640A6D3A096465627567D6
:10038000206D6F7573650A763A0976657273696FC9
:100390006E0A733A097374617475730A633A096378
:1003A0006F6E736F6C65206D6F64650A302D343A23
:1003B000096C61796572302D34284631302D463410
:1003C000290A506175733A09626F6F746C6F6164CA
:1003D00065720A653A09656570726F6D0A000A00F8
:1003E0002575002E6E6B726F3A20000A002575008D
:1003F0002E737761705F6261636B736C6173685FAA
:100400006261636B73706163653A20000A00257551
:10041000002E737761705F67726176655F657363E5
:100420003A20000A002575002E6E6F5F6775693AE5
:1004300020000A002575002E737761705F72616C71
:10044000745F726775693A20000A002575002E7383
:100450007761705F6C616C745F6C6775693A2000DE
:100460000A002575002E636170736C6F636B5F7497
:100470006F5F636F6E74726F6C3A20000A002575AF
:10048000002E737761705F636F6E74726F6C5F6361
:100490006170736C6F636B3A20000A00253032582C
:1004A000006B65796D61705F636F6E6669672E7250
:1004B00061773A20000A002575002E6D6F7573650F
:1004C0003A20000A002575002E6B6579626F617213
:1004D000643A20000A002575002E6D6174726978F7
:1004E0003A20000A002575002E656E61626C653A3F
:1004F00020000A00253032580064656275675F632A
:100500006F6E6669672E7261773A20000A00257562
:100510000064656661756C745F6C617965723A2020
:10052000003F007573625F6B6579626F6172645F33
:1005300069646C655F636F756E743A2025580A00B4
:100540007573625F6B6579626F6172645F6C65641D
:10055000733A2025580A005544494E543A202558EC
:100560000A00554449454E3A2025580A005544434F
:100570004F4E3A2025580A0074696D65725F7265A6
:100580006164333228293A202530346C580A006BD4
:100590006579626F6172645F69646C653A202558A1
:1005A0000A006B6579626F6172645F70726F746F5D
:1005B000636F6C3A2025580A00686F73745F6B652F
:1005C00079626F6172645F6C65647328293A2025D3
:1005D000580A000A092D20537461747573202D0A7E
:1005E000004743433A2031312E312E3020415652BC
:1005F0002D4C4942433A20322E302E302041565263
:100600005F415243483A2061767235310A004F50BB
:1006100054494F4E533A20504A524320424F4F5470
:100620004D414749432045585452414B4559204379
:100630004F4E534F4C4520434F4D4D414E44203279
:100640003034380A004255494C443A2031636665DB
:100650006330392D6469727479202831353A333228
:100660003A3230204A756C20323220323032312911
:100670000A005649443A20307846454544282249E4
:10068000424D2229205049443A20307836303537BF
:1006900028224D6F64656C204D2229205645523A20
:1006A000203078303030310A00444553433A20221C
:1006B000742E6D2E6B2E206B6579626F61726420D3
:1006C0006669726D7761726520666F722049424D6E
:1006D000204D6F64656C204D205465656E737920E4
:1006E000322E302B2B220A000A092D2056657273F8
:1006F000696F6E202D0A000A6D6F7573653A206F61
:1007000066660A000A6D6F7573653A206F6E0A009F
:100710000A6B6579626F6172643A206F66660A00DF
:100720000A6B6579626F6172643A206F6E0A000A23
:100730006D61747269783A206F66660A000A6D61AD
:10074000747269783A206F6E0A000A646562756790
:100750003A206F6E0A000A64656275673A206F6618
:10076000660A000A0A626F6F746C6F616465722EAC
:100770002E2E2000433E20006565636F6E6669671C
:100780003A0A000011241FBECFEFD0E2DEBFCDBF7A
:1007900004B603FE27C08091420290914302A091CB
:1007A0004402B09145028730904BA740B04BD1F442
:1007B000109242021092430210924402109245029B
:1007C00014BE84B7877F84BF0FB6F894A895809134
:1007D0006000886180936000109260000FBEE0E0CE
:1007E000FCEF099511E0A0E0B1E0EAE2FCE300E0F3
:1007F0000BBF02C007900D92AE35B107D9F722E0CA
:10080000AEE5B1E001C01D92A234B207E1F70E944B
:1008100048070C94D81D0C940000FF93EF93E091CF
:100820005E01F0915F01309709F00995EF91FF911A
:100830000895FC018591803011F0EFDFFBCF089522
:10084000FF27E0E230E247FF0CC0419597FF09C067
:10085000EDE26095709580959095611D711D811DEB
:10086000911D27FF02C0219530E350E2AA27660FB1
:10087000771F881F991FAA1FA41710F0A41B639548
:100880005A95A9F7AA3008F0A95FA05DAF93F39538
:10089000611571058105910541F7ED3211F4EF9372
:1008A000F395F21718F43F93F395FBCF8F91B5DFD3
:1008B000FA95E1F70895E991F9918591803021F059
:1008C000853219F0AADFF9CF089520E0E894559118
:1008D0005532C1F3503311F4689455915A3348F4AA
:1008E000505390F3220F022E220F220F200D250FBE
:1008F000F4CF0EF4219589919991533619F353371A
:1009000029F1533559F1BC0188279927E8945C36C1
:1009100021F48991999168945591543639F446EFB0
:100920007EF077FF0DC08FEF9FEF0AC055374AE08A
:1009300039F0583540E121F0523642E009F008958F
:10094000FF93EF937DDFEF91FF91B7CFFF93EF938D
:10095000FC0181918030B9F360DFFBCFFF93EF930F
:1009600068DFF1CFDF93CF93CDB7DEB72596A3DF56
:10097000CF91DF91089598E0799FF0011124E60F5F
:10098000F11DE856FF4F8491089590E080E00895AE
:100990002098289880B3807E80BB81B3807E81BB05
:1009A0008DB18F738DB98EB18F738EB908950E94FA
:1009B000C80487B117B888B18FEF88B98DB18C7F23
:1009C0008DB98EB183608EB98AB183708AB98BB1CB
:1009D0008C6F8BB980E2E0E8F1E0DF01982F1D9287
:1009E0009A95E9F7E0E6F1E0DF011D928A95E9F7D3
:1009F00008952F923F924F925F926F927F928F92C3
:100A00009F92AF92BF92CF92DF92EF92FF920F939D
:100A10001F93CF93DF93CDB7DEB769970FB6F894E6
:100A2000DEBF0FBECDBFB12CA12C44244394512C6A
:100A3000EFEFEA0DE73028F4F0E0E652F24E0C94C6
:100A40009E1D209A289800EA0A95F1F7E6B0F6B0C4
:100A500016B126B1298FA6B1F6B1E6B1B6B17CB117
:100A60006CB159B149B139B129B199B189B1129576
:100A700016951770DD24D3941D2510FB662460F8AD
:100A8000712C8301000F111F000F111FF694F694B3
:100A9000F694F694F694F694FD24F0FA222420F8C5
:100AA000312C6101CC0CDD1C0C291D290E2C000CF5
:100AB000FF08E094F094EE24FF0CEE1CFF24E02AE3
:100AC000F12A098D02950F7011E001270170098349
:100AD0001A8209811A81000F111F000F111F000FC8
:100AE000111F0E291F29A695A695A695DD24D3943E
:100AF000AD25A170AB831C82EB80FC80A4E0EE0CE2
:100B0000FF1CAA95E1F7E02AF12AF695F695FD2556
:100B1000F170FD831E820D811E81F5E0000F111F13
:100B2000FA95E1F70E291F29E695ED25E170EF838F
:100B30001886EF81F885A6E0EE0FFF1FAA95E1F772
:100B40000E2B1F2BB095B170B9871A86E985FA85EF
:100B5000F695FE2FEE27F795E7950E2B1F2B769532
:100B600071707D25172B60956170660F6C871B86F1
:100B70006B857C85062B172B652F550F770B6095A2
:100B80007095572F551F5527551F550F550F5E87C9
:100B90001D86ED85FE850E2B1F2B429546954695AD
:100BA00043704D254170440F440F440F488B1F86FE
:100BB0004F855889042B152B3295369537703D2576
:100BC00031703295307F3A8B198A69897A89062B80
:100BD000172B22952F702D2521702295220F207E14
:100BE0002C8B1B8AEB89FC890E2B1F2B96959695D7
:100BF00096959D2591709295990F990F907C9E8B5B
:100C00001D8A2D893E89022B132B869586958D256D
:100C10008170879588278795888F1F8A4F89588D7F
:100C2000042B152B42010A2C02C0880C991C0A9433
:100C3000E2F780E6C82E81E0D82EF12CE12CF601F7
:100C4000819191916F019C012821392151E0232B41
:100C500009F450E092010E2C02C0220F331F0A94B7
:100C6000E2F72023312341E0232B09F440E054171D
:100C700079F1F601329788259925918380838091B7
:100C80000001882311F180913A0280FF1EC086E4A2
:100C900091E00E94190480913A0280FF16C0809171
:100CA00000011F928F9321E431E03F932F930E9424
:100CB000B20480913A020F900F900F900F9080FF36
:100CC00004C08EE391E00E9419045AE050930001A1
:100CD0006FEFE61AF60A70E1E716F10409F0AFCFFC
:100CE0000E94C8048FEFA81AB80A98E0A916B104A8
:100CF00009F09ECE80910001882359F081508093A5
:100D000000018823B1F1EFE9FFE03197F1F700C06E
:100D1000000081E090E069960FB6F894DEBF0FBE48
:100D2000CDBFDF91CF911F910F91FF90EF90DF909A
:100D3000CF90BF90AF909F908F907F906F905F907B
:100D40004F903F902F9008956F9A77987CCE6E9A2F
:100D5000769879CE809A889876CE819A899873CE43
:100D6000829A8A9870CE839A8B986DCE849A8C984A
:100D70006ACE80E2E0E6F1E0A0E8B1E001900D92F9
:100D80008A95E1F7C6CFFC01EE0FFF1FE058FE4F3A
:100D9000808191810895CF92DF92EF92FF920F931D
:100DA0001F93CF93DF938FE291E00E94190400E834
:100DB00011E0D0E0C0E08AE2E82E81E0F82E92E275
:100DC000C92E91E0D92EDF93CF93FF92EF920E942C
:100DD000B20487E291E00E941904F80180810E5F5D
:100DE0001F4F0E9408171F928F93DF92CF920E948D
:100DF000B204F801329720813181C9010197822321
:100E000093234DB75EB7485F5F4F0FB6F8945EBF50
:100E10000FBE4DBF892B91F0E0E8F1E090E080E05B
:100E2000C817D90731F04081518142235323452B04
:100E3000B9F4019632968031910591F788E191E0FD
:100E40000E9419042196C031D10509F0BCCFDF9171
:100E5000CF911F910F91FF90EF90DF90CF90089569
:100E60008AE191E00E941904E9CF94B1906794B9A6
:100E700081FF08C02C9882FF07C02D9880FF06C014
:100E80002E9808952C9AF7CF2D9AF8CF2E9A089580
:100E900080E880936100109261000E94A80B0E947C
:100EA00064080E947D088823E1F385E198E00E94B0
:100EB00003170E94AA0B0E947D070E94210B8091BC
:100EC000A601811103C00E94B00BF9CF0E94311717
:100ED0008091A701882399F30E945817882379F3FA
:100EE0000E948808ECCF8091A001089508950C9489
:100EF000190B0C941D0B0C94D60781E091E008951A
:100F0000CF92DF92EF92FF920F931F93CF93DF93D5
:100F1000EC0180913A0282FF40C086E691E00E9497
:100F200019048E010E5F1F4F6E0188E0C80ED11CA0
:100F300081E6E82E81E0F82EF80181918F011F9261
:100F40008F93FF92EF920E94B2048FE591E00E948E
:100F500019040F900F900F900F900C151D0561F75D
:100F600087E591E00E94190488811F928F9382E5A2
:100F700091E09F938F930E94B2040F900F900F9077
:100F80000F9080E591E0DF91CF911F910F91FF903D
:100F9000EF90DF90CF900C941904DF91CF911F91C7
:100FA0000F91FF90EF90DF90CF9008950F931F93D4
:100FB000CF93DF93EC010E947D08811106C08FEF73
:100FC000DF91CF911F910F9108958FB7F89491E021
:100FD0009093E9001091E4001E5C01E09091E8001C
:100FE00095FD0EC08FBF0E947D08882341F380913C
:100FF000E400181721F38FB7F8940093E900EECFBF
:10100000FE019E01285F3F4F91919093F1002E17B2
:101010003F07D1F79AE39093E8008FBF1092A101A8
:10102000CE010E94800780E0CBCF1F93CF93DF9348
:10103000C82F0E947D08811105C08FEFDF91CF91ED
:101040001F9108959FB7F89483E08093E900809101
:10105000A201882341F08091E80085FD02C09FBF76
:10106000ECCF1092A201D091E400DC5F13E08091FC
:10107000E80085FD12C09FBF8091E4008D1304C07D
:1010800081E08093A201D9CF0E947D088823A9F234
:101090009FB7F8941093E900EACFC093F1008091D4
:1010A000E80085FD08C08AE38093E8001092A30160
:1010B0009FBF80E0C3CF82E08093A301F9CF8091EE
:1010C000E80080FFFCCF089581E88093D70080EA94
:1010D0008093D80086E189BD09B400FEFDCF80E988
:1010E0008093D8001092E0001092A5011092A60102
:1010F0008DE18093E200789408958091A501882382
:1011000029F08091A60191E08927089580E0089553
:101110008091E00082608093E0008091E00081FD9A
:10112000FCCF08951F920F920FB60F9211240BB6A9
:101130000F922F933F934F935F936F937F938F9370
:101140009F93AF93BF93CF93EF93FF93C091E10031
:101150001092E100C0FF15C08091E20080FF11C035
:101160008091A501882369F08091E2008E7F8093B1
:10117000E2008091E20080618093E20081E0809350
:10118000A601C4FF16C08091E20084FF12C08091C6
:10119000A501882371F00E9471178091E20081609F
:1011A0008093E2008091E2008F7E8093E2001092B3
:1011B000A601C3FF0FC01092E90081E08093EB000D
:1011C0001092EC0082E28093ED0088E08093F000C2
:1011D0001092A501C2FF34C08091A501882381F13E
:1011E0008091A301882379F081508093A30181111C
:1011F0000AC083E08093E9008091E80085FD34C057
:101200008AE38093E80080910B018823C9F08091E4
:10121000A4018F5F8093A401837091F481E0809397
:10122000E9008091E80085FF0BC08091A1018F5FEC
:101230008093A10190910B01891302C01092A1012A
:10124000FF91EF91CF91BF91AF919F918F917F913E
:101250006F915F914F913F912F910F900BBE0F9027
:101260000FBE0F901F9018951092F100C5CF1F92DE
:101270000F920FB60F9211240BB60F92EF92FF92BE
:101280000F931F932F933F934F935F936F937F938E
:101290008F939F93AF93BF93CF93DF93EF93FF937E
:1012A0001092E9008091E80083FF73C0D091F100B3
:1012B000C091F100E090F1008091F100F82E0091D2
:1012C000F1008091F100182F8091F1009091F100D0
:1012D00022EF2093E800C63009F067C02DE631E028
:1012E000F90145915491E416F50609F04BC0F90156
:1012F0003296459154910417150709F043C0F9013E
:10130000349645915491F9013696E4918F3F9105B9
:1013100019F010F08FEF90E0E81708F48E2F3EEFF1
:101320009091E800292F2570D9F392FD12C0982FD3
:10133000813208F090E2FA01292F211130C0490FC3
:10134000511D282F291B3093E800891326C08032B5
:1013500021F1FF91EF91DF91CF91BF91AF919F91DB
:101360008F917F916F915F914F913F912F911F913D
:101370000F91FF90EF900F900BBE0F900FBE0F904C
:101380001F901895295F3F4F41E02A3B340709F031
:10139000A7CF81E28093EB00DCCF822FC1CF649195
:1013A0006093F10021503196C8CFC53051F48EEFD3
:1013B0008093E8000E945F088E2D80688093E30090
:1013C000C8CFC93061F5D1117CC0E092A5018EEF84
:1013D0008093E80021E08EEC92E031E02093E90078
:1013E000AC014F5F5F4FFC0164916623A1F0309325
:1013F000EB00FA0144914093EC003196E49103969E
:10140000E093ED002F5F273049F78EE78093EA00E5
:101410001092EA009ECF1092EB00CA01F3CFC830C1
:1014200051F4D03809F04DC00E945F088091A501A9
:101430008093F10013C0C11115C00E945F08D2381B
:1014400049F40093E900C091EB00C5FBCC27C0F93B
:101450001092E900C093F1001092F1008EEF80939A
:10146000E80077CF2C2F2D7F213059F5D230E1F4D1
:10147000EF2809F07BC0202F2F773FEF320F363057
:1014800008F074C08EEF8093E8002093E900C33029
:1014900009F47FCF89E18093EB0081E090E001C007
:1014A000880F2A95EAF7B2CFD1110BC0EA94EF2842
:1014B00009F05CC081E0C33009F080E08093A701AF
:1014C000CDCF0115110509F055C0D13A59F5C130FC
:1014D000D1F40E945F08E0910D01F0910E0180812E
:1014E0008093F1001092F100E0910D01F0910E0156
:1014F000E00FF11F82818093F1000F5F1F4F0630D4
:10150000110591F7ABCFC23029F40E945F0880919A
:101510000B018ECFC33009F03CCF0E945F08809151
:101520000C0186CFD13209F034CFC93061F48091FB
:10153000E80082FFFCCF8091F1008093A0018BEF47
:101540008093E8008BCFCA3029F4F0920B011092FF
:10155000A10184CFCB3009F01CCFE0920C010E9496
:10156000BD107CCF1092F10021501BC00115110558
:1015700009F40FCF0230110509F00BCFC13009F08B
:1015800008CF3EEFD13A09F004CF9091E800292F1F
:101590002570D9F392FDDDCE982F813208F090E2CC
:1015A000292F2111DFCF282F291B3093E800891321
:1015B00003C0803209F0CDCE822FE7CFFF920F9388
:1015C0001F93CF93DF93182FD62FC72F0E947D082C
:1015D000811107C08FEFDF91CF911F910F91FF9085
:1015E00008959FB7F89484E08093E9000091E400A7
:1015F0000E5C84E0F82E8091E80085FD0EC09FBF50
:101600000E947D08882331F38091E400801711F354
:101610009FB7F894F092E900EECF1093F100D093C9
:10162000F100C093F1008AE38093E8009FBF80E05F
:10163000D2CFBC0183E00C94DE0ABC0182E00C94A2
:10164000DE0A9093AD018093AC010895E091AC0166
:10165000F091AD01309721F00190F081E02D0994D7
:1016600080E00895EF92FF920F931F93CF93DF9343
:101670008C01E091AC01F091AD013097A9F10280AD
:10168000F381E02D099580913A0282FF2DC080FF01
:1016900004C082EE92E00E941904E801C801089695
:1016A0007C010CED12E080913A0280FF0BC0888132
:1016B0001F928F931F930F930E94B2040F900F906D
:1016C0000F900F902196CE15DF0569F780913A02B1
:1016D00080FF0AC08AED92E0DF91CF911F910F91B8
:1016E000FF90EF900C941904DF91CF911F910F910F
:1016F000FF90EF9008952091AA013091AB01281737
:10170000390771F09093AB018093AA01E091AC018D
:10171000F091AD01309721F00680F781E02D09941A
:1017200008952091A8013091A9012817390771F077
:101730009093A9018093A801E091AC01F091AD01D3
:10174000309721F00084F185E02D099408950895E3
:101750000C94A70B0E949A170E94D7040C943A1974
:101760002F923F924F925F926F927F928F929F92B1
:10177000AF92BF92CF92DF92EF92FF920F931F939F
:10178000CF93DF9300D000D000D0CDB7DEB70E945A
:10179000F9049FEC292E91E0392E2FEAC22E21E088
:1017A000D22E10E000E044244394512C0E83C80153
:1017B0000E94C3067C01F101619071901F016816BF
:1017C000790609F4A7C0C8010E94C3065C0101970D
:1017D0008A219B21892B61F0912C812CFE81F811AB
:1017E00082C08FEF881A980AE0E18E169104B1F753
:1017F000F601F182E08280913A0281FD0E94CB06DF
:101800006E247F2490E080E05201082E02C0AA0CD2
:10181000BB1C0A94E2F7950126213721232B09F4FA
:1018200093C08983FE81FA83EA20FB2081E0EF28C0
:1018300009F480E08B830E94A3178160782F9D8339
:101840008C8349815A816B81892F0E94C50C498103
:101850005A816B817C818D810E941D17000F111FA1
:10186000F801E153FE4F808191818A259B25918368
:1018700080830E941C170E94260B9091AE0189174D
:1018800009F468C00E94260B8093AE0190913A0241
:101890009570953061F41F928F9384EF92E09F933F
:1018A0008F930E94B2040F900F900F900F90809131
:1018B000AE0126960FB6F894DEBF0FBECDBFDF9106
:1018C000CF911F910F91FF90EF90DF90CF90BF903D
:1018D000AF909F908F907F906F905F904F903F90D0
:1018E0002F900C942E17C4010E94C3068A219B21BD
:1018F000892B09F476CF80913A0281FF08C0F60166
:10190000808191818E159F0511F00E94CB06F60112
:10191000F182E0820F5F1F4F82E0C80ED11C0031C0
:10192000110509F043CF8FEF89838A831B820E94C0
:10193000A3178160782F9D838C8349815A816B81A5
:10194000892F0E94C50C95CF01968830910509F02A
:101950005BCFE0CF26960FB6F894DEBF0FBECDBFAB
:10196000DF91CF911F910F91FF90EF90DF90CF907B
:10197000BF90AF909F908F907F906F905F904F90AF
:101980003F902F9008950C943507CF93DF93CDB7F8
:10199000DEB72B970FB6F894DEBF0FBECDBF4F83D7
:1019A000588769877A878B878A859B85892B21F061
:1019B000842F85238F3FD1F41E8285E0FE01379668
:1019C000DE01119601900D928A95E1F749815A81C5
:1019D0006B817C818D819E812B960FB6F894DEBF42
:1019E0000FBECDBFDF91CF910C941E1369857A8510
:1019F0008B850E941D17E0CFCF93C82F882309F451
:101A00003FC08CEF8C0F813A58F48C2F0E94551DEB
:101A1000811136C08C2F0E946216CF910C94DD1676
:101A200080E28C0F883048F4C77081E001C0880FD5
:101A3000CA95EAF70E94A216F0CF8BE58C0F83308F
:101A400068F481E890E0C53A31F083E890E0C63A66
:101A500011F482E890E0CF910C947B0BC85AC53109
:101A600078F48AE292E0C43141F0EC2FF0E0EE0F1E
:101A7000FF1FE15FFE4F80819181CF910C94910B0C
:101A8000CF910895882329F19CEF980F913A20F483
:101A90000E947F160C94DD1690E2980F983050F457
:101AA000877091E001C0990F8A95EAF7892F0E940B
:101AB000A816F0CF9BE5980F933020F490E080E0DB
:101AC0000C947B0B885A853120F490E080E00C94D4
:101AD000910B0895882321F00E94A2160C94DD1624
:101AE0000895882321F00E94A8160C94DD1608950D
:101AF000AF92BF92CF92DF92EF92FF920F931F931C
:101B0000CF93DF93CDB7DEB729970FB6F894DEBF3A
:101B10000FBECDBF5C0185E0F501DE01119601909D
:101B20000D928A95E1F7F50183819481892B31F03B
:101B30008081918189238F3F09F0FBC229960FB6DE
:101B4000F894DEBF0FBECDBFDF91CF911F910F91F3
:101B5000FF90EF90DF90CF90BF90AF900895F12F5E
:101B6000FF70FF2E107F19F0F29420EFF222EE208A
:101B7000D1F0FF2029F08F2D0E94B6160E94DD16AD
:101B8000802F29960FB6F894DEBF0FBECDBFDF9130
:101B9000CF911F910F91FF90EF90DF90CF90BF906A
:101BA000AF900C94FC0C802F0E94420DFF2031F26C
:101BB0008F2D0E94BC1629960FB6F894DEBF0FBE7B
:101BC000CDBFDF91CF911F910F91FF90EF90DF90EC
:101BD000CF90BF90AF900C94DD16212F2F70D22E96
:101BE000107F103219F0D29490EFD922002379F0AF
:101BF000013009F455C0EE2009F463C0FF2059F00C
:101C0000F501858180FFBCCF8F70858304C0EE20F5
:101C100059F1F11013C08D2D29960FB6F894DEBF3F
:101C20000FBECDBFDF91CF911F910F91FF90EF902D
:101C3000DF90CF90BF90AF900C946A0D31E08D2D66
:101C4000F312EACF29960FB6F894DEBF0FBECDBFD0
:101C5000DF91CF911F910F91FF90EF90DF90CF9088
:101C6000BF90AF900C94C716F11015C00E94CA1611
:101C70008D2D29960FB6F894DEBF0FBECDBFDF9134
:101C8000CF911F910F91FF90EF90DF90CF90BF9079
:101C9000AF900C94710D41E0F41609F44FCFE6CFEC
:101CA000EE2051F055E05F1508F448CF0E949F16D2
:101CB0008D2109F4B0CFDCCF84E08F1508F43ECF3E
:101CC000D7CFFF20A9F2802F29960FB6F894DEBF58
:101CD0000FBECDBFDF91CF911F910F91FF90EF907D
:101CE000DF90CF90BF90AF900C94420D812F8695DE
:101CF00086958370D9F0813009F020CFC8019370A8
:101D0000E11002C090E080E029960FB6F894DEBFA3
:101D10000FBECDBFDF91CF911F910F91FF90EF903C
:101D2000DF90CF90BF90AF900C94910BC80193704F
:101D3000E11002C090E080E029960FB6F894DEBF73
:101D40000FBECDBFDF91CF911F910F91FF90EF900C
:101D5000DF90CF90BF90AF900C947B0B812F83705E
:101D600009F08CC0E110EACE202F2295269527702D
:101D7000220F220F802F8F7090E0B0E0A0E06C0166
:101D80007D01022E04C0CC0CDD1CEE1CFF1C0A944D
:101D9000D2F760E070E0CB0104FF0FC06FE070E0AD
:101DA00080E090E004C0660F771F881F991F2A9576
:101DB000D2F760957095809590951695169513704D
:101DC0001230C9F1133009F454C09B01AC012C2925
:101DD0003D294E295F292E833F834887598711303B
:101DE000A1F0CA01B90129960FB6F894DEBF0FBE63
:101DF000CDBFDF91CF911F910F91FF90EF90DF90BA
:101E0000CF90BF90AF900C9495146E817F818885A0
:101E1000998529960FB6F894DEBF0FBECDBFDF912E
:101E2000CF911F910F91FF90EF90DF90CF90BF90D7
:101E3000AF900C946D149B01AC012C293D294E29C7
:101E40005F292E833F8348875987CA01B9012996A4
:101E50000FB6F894DEBF0FBECDBFDF91CF911F91BB
:101E60000F91FF90EF90DF90CF90BF90AF900C94C8
:101E7000BD140E949514C701B601CBCFEE2009F422
:101E800053C010FF5BCE202F229526952770220F7E
:101E9000220F802F8F7090E0B0E0A0E06C017D01F8
:101EA000022E04C0CC0CDD1CEE1CFF1C0A94D2F7E1
:101EB00060E070E0CB0104FF0FC06FE070E080E0F5
:101EC00090E004C0660F771F881F991F2A95D2F7EC
:101ED00060957095809590951695169513701230B3
:101EE000E1F1133009F457C09B01AC012C293D29C5
:101EF0004E295F292E833F83488759871130B9F0D7
:101F0000CA01B90129960FB6F894DEBF0FBECDBF46
:101F1000DF91CF911F910F91FF90EF90DF90CF90C5
:101F2000BF90AF900C94CE1511FF08CEACCF6E8150
:101F30007F818885998529960FB6F894DEBF0FBEFC
:101F4000CDBFDF91CF911F910F91FF90EF90DF9068
:101F5000CF90BF90AF900C94A6159B01AC012C299B
:101F60003D294E295F292E833F8348875987CA011F
:101F7000B90129960FB6F894DEBF0FBECDBFDF9131
:101F8000CF911F910F91FF90EF90DF90CF90BF9076
:101F9000AF900C94F6150E94CE15C701B601CBCFB9
:101FA000013F09F43FC068F4003FE9F0003E78F0DB
:101FB0000F70812F8F71EE2091F00E940F15802FEE
:101FC0002BCE023F09F444C0033F09F457C0EE2072
:101FD00009F47CC0F110D4CD812F8F7127C00E94ED
:101FE0004015802F46CEEE20C1F034E03F1508F4B6
:101FF000A5CD812F8F7129960FB6F894DEBF0FBE45
:10200000CDBFDF91CF911F910F91FF90EF90DF90A7
:10201000CF90BF90AF900C94751545E04F1508F424
:102020008DCDE7CF812F8F71EE20B1F029960FB6BD
:10203000F894DEBF0FBECDBFDF91CF911F910F91FE
:10204000FF90EF90DF90CF90BF90AF900C940F1562
:10205000812F8F71EE2051F329960FB6F894DEBFD1
:102060000FBECDBFDF91CF911F910F91FF90EF90E9
:10207000DF90CF90BF90AF900C944015EE20A1F070
:10208000812F8F7129960FB6F894DEBF0FBECDBF9A
:10209000DF91CF911F910F91FF90EF90DF90CF9044
:1020A000BF90AF900C94EA1429960FB6F894DEBF57
:1020B0000FBECDBFDF91CF911F910F91FF90EF9099
:1020C000DF90CF90BF90AF900C94E514F110FBCD52
:1020D000812F8F71C1CF412F4F70602FC5010E949A
:1020E000D21829960FB6F894DEBF0FBECDBFDF9190
:1020F000CF911F910F91FF90EF90DF90CF90BF9005
:10210000AF900C94B813412F4F70602FC5012996E2
:102110000FB6F894DEBF0FBECDBFDF91CF911F91F8
:102120000F91FF90EF90DF90CF90BF90AF900C9405
:10213000D518E280F580F2948FE0F82289819A81A7
:102140000E941F168C010E941E160E946A14E12F25
:10215000E295EF70F0E0EF51F24E0C949E1D0E945C
:10216000C4160E9491160E94DD1690E080E00E9445
:102170007B0B90E080E00C94910B0E94B3160C94C2
:10218000AF100E941F16382F292F22952F702C3048
:1021900099F080F4243020F4223030F480E0089567
:1021A0002A5F2F702230D0F781E0303E10F0303FB0
:1021B000A9F708952F3091F793FB882780F90895A8
:1021C000CF93DF9300D000D00F92CDB7DEB70F9042
:1021D0000F900F900F900F90DF91CF910895CF93B4
:1021E000DF9300D000D000D0CDB7DEB726960FB673
:1021F000F894DEBF0FBECDBFDF91CF9108951F933E
:10220000CF93DF93E091EF0116E08091F0018E1300
:1022100004C0DF91CF911F910895CE2FD0E01E9F73
:10222000F0011124EF50FE4F408151816281738192
:10223000848195810E94EF102196EC2FE770E5CF05
:102240004091210250912202609123027091240258
:1022500080912502909126020C94EF10CF938091EB
:102260002602807FA9F480912302882389F080913F
:10227000EF01A091F0017091210260912202409142
:10228000240250912502B62FB723C6E0A81302C03E
:10229000CF91089590E04115510511F0BF3F31F401
:1022A00001968770F3CF2150310919C0C89FF00102
:1022B000C99FF00D1124EF50FE4F21816213F0CF22
:1022C00020812713EDCF22812111EACF0380F481F1
:1022D000E02D9F01241B350BE417F50720F3283C64
:1022E0003105F0F6209126022F70206120932602FE
:1022F00026E0289FF001299FF00D1124EA50FE4F9F
:1023000080818F708061808381E292E00E94780DED
:10231000CF910C94FF109F92AF92BF92CF92DF9219
:10232000EF92FF920F931F93CF93DF93CDB7DEB75A
:102330002B970FB6F894DEBF0FBECDBF8C0185E0A2
:10234000F801DE01179601900D928A95E1F7D80108
:102350001296EC9012973C9111962C91119713962E
:10236000CD90DC9040912102509122026091240294
:10237000709125026115710529F0842F85238F3F07
:1023800009F046C1EE2009F455C18F8198850E945D
:10239000C110882309F44EC1F8C0C616D70628F12B
:1023A000FF24F394883C910508F0F12C81E2A82EDB
:1023B00082E0B82E80912602982F907FF11017C0EE
:1023C00009F0F2C04F81588569857A858B850E9416
:1023D000E01081E292E00E94780D86E0D5011D9226
:1023E0008A95E9F70E94201119C00197D9CF911160
:1023F000A8C0FE2C251325C0431323C0E11021C023
:102400008F708061809326020E94201181E292E009
:102410000E94780D80912602F80185838F2D2B96DE
:102420000FB6F894DEBF0FBECDBFDF91CF911F91E5
:102430000F91FF90EF90DF90CF90BF90AF909F9063
:102440000895CD2829F0822F83238F3F09F076C08D
:1024500080E0F82FF170DF2EE091EF014091F00164
:1024600056E080FD1CC0EE20C9F2809126028160FA
:1024700080932602F12CD2CF8E2F90E05E9FF00148
:102480001124EF50FE4F6181261306C06081361380
:1024900003C06281E612E7CF0196E82FE770E413EC
:1024A000EBCF8F8198850E941F16292F22952F70C0
:1024B000903268F0225F2F70223080F49F7059F0C4
:1024C000D80115969C91907F31F4D12C0AC09F7051
:1024D00011F08823D1F3805E8830B8F3C8010E94E0
:1024E000780DFD2C9BCF01979EC086E0F801A1E2FC
:1024F000B2E001900D928A95E1F790CF8F81988597
:102500000E94C110811141C0809126028160809398
:102510002602C8010E94780D81CF4F8158856985B8
:102520007A858B850E94E01086E0E1E2F2E0DF012F
:102530001D928A95E9F70E9420119CCF81E08E259B
:1025400088CF251306C0431304C0F801EE2009F418
:1025500052C08F8198850E94C110882309F46AC0F7
:10256000EE2009F467C080912602803270F020913D
:102570002102309122023A8329831B82DD82CC82A0
:102580008E83CE0101960E94780D86E0F801A1E2CB
:10259000B2E001900D928A95E1F70E942E110E94FF
:1025A0002011FF24F3943ACF2513D3CF4313D1CF77
:1025B000E110CFCFF8018583C8010E94780D86E035
:1025C000D5011D928A95E9F7F92C28CF251396CFCE
:1025D000431394CF8091260280FD87CF982F907F60
:1025E00009F483CFF8018583903F31F0982F907FD5
:1025F000905F8F70892B8583C8010E94780D86E0DB
:10260000F801A1E2B2E001900D928A95E1F7EACEDD
:1026100090902302C601861B970B9110BECEC61662
:10262000D70608F460CF883C910508F076CFFE2CE1
:10263000E110CCCFC8010E94780DB3CF1F93CF9388
:10264000DF93CDB7DEB72C970FB6F894DEBF0FBE81
:10265000CDBF4F83588769877A878B879C87CE0148
:1026600007960E948B11882369F08A859B85892BA8
:1026700039F058854F81852F84238F3F09F071C031
:1026800016E05FC086E0FE013796DE0111960190EC
:102690000D928A95E1F78F8198852091F001409104
:1026A000EF016A857B85672B59F389238F3F41F3BF
:1026B00030E0C9010196877099274817190671F40F
:1026C0000E94BD101092F0011092EF0186E0E1E24D
:1026D000F2E0DF011D928A95E9F7D2CF96E0929F52
:1026E000D001939FB00D1124AF50BE4FFE01319623
:1026F00001900D929A95E1F78093F0010E94FF10EE
:10270000BFCF819FC00111248F509E4F0E948B111B
:102710008823E9F0E091EF011E9FF0011124EF50B2
:10272000FE4F4081518162817381848195810E9435
:10273000EF108091EF0190E00196877099278093C8
:10274000EF018091EF019091F0018913DACF2C967F
:102750000FB6F894DEBF0FBECDBFDF91CF911F91B2
:10276000089569857A858B859C850E94EF1088CFB6
:10277000DF92EF92FF920F931F93CF93DF939C0111
:10278000892BB9F0F12CE12CDD24D394E9012196B9
:10279000F9018491853709F46EC098F4843709F4FF
:1027A0005AC0843008F073C0813011F1823009F4CE
:1027B0003CC0DF91CF911F910F91FF90EF90DF9080
:1027C0000895883709F460C058F4863709F458C072
:1027D000873779F78F2D0E94B0160E94DD1620C032
:1027E0009CE7980F903728F78F770E94420D18C00A
:1027F00089010E5F1F4FFE01849190E2980F98307F
:1028000060F48770FD2D01C0FF0F8A95EAF78F2FC6
:102810000E94B6160E94DD1602C00E94FC0CE80160
:102820008E2D811137C09E01B1CF89010E5F1F4FE0
:10283000FE01849190E2980F983050F48770FD2D3E
:1028400001C0FF0F8A95EAF78F2F0E94BC16E2CFD6
:102850000E94420DE4CF2E5F3F4FFE01C491C11193
:1028600002C0E901DDCF8FE99FE00197F1F700C0D9
:102870000000C150F4CF2E5F3F4FFE01E490F1CF36
:102880000E949F16F82ECCCF0E94B316A6CF0E94AE
:10289000FC0CC6CFEFE9FFE03197F1F700C0000074
:1028A0008150BFCF60932B0270932C0280932D0236
:1028B00090932E020E942C170C94AF106093270265
:1028C000709328028093290290932A020E942D1768
:1028D0000C94AF1008950C945214CF93DF9300D052
:1028E00000D0CDB7DEB769837A838B839C838091D8
:1028F0002B0290912C02A0912D02B0912E022981E1
:102900003A814B815C81282B392B4A2B5B2B298305
:102910003A834B835C83CA01B9010F900F900F90EB
:102920000F90DF91CF910C945214CF93DF9300D08E
:1029300000D0CDB7DEB769837A838B839C83809187
:102940002B0290912C02A0912D02B0912E02298190
:102950003A814B815C81282339234A235B232983D5
:102960003A834B835C83CA01B9010F900F900F909B
:102970000F90DF91CF910C945214CF93DF9300D03E
:1029800000D0CDB7DEB769837A838B839C83809137
:102990002B0290912C02A0912D02B0912E02298140
:1029A0003A814B815C81282739274A275B27298375
:1029B0003A834B835C83CA01B9010F900F900F904B
:1029C0000F90DF91CF910C94521460E070E0CB0136
:1029D0000C945E140F931F93CF93DF9300D000D01D
:1029E000CDB7DEB741E050E060E070E08A019B01C6
:1029F00004C0000F111F221F331F8A95D2F70983CD
:102A00001A832B833C83C901B8010F900F900F905C
:102A10000F90DF91CF911F910F910C945E140F9343
:102A20001F93CF93DF9300D000D0CDB7DEB741E046
:102A300050E060E070E004C0440F551F661F771F30
:102A40008A95D2F78091270290912802A0912902BD
:102A5000B0912A028A019B01082B192B2A2B3B2BB0
:102A600009831A832B833C83C901B8010F900F900F
:102A70000F900F90DF91CF911F910F910C945E14E6
:102A80000F931F93CF93DF9300D000D0CDB7DEB765
:102A900041E050E060E070E004C0440F551F661F45
:102AA000771F8A95D2F740955095609570958091E3
:102AB000270290912802A0912902B0912A028A014E
:102AC0009B01082319232A233B2309831A832B8381
:102AD0003C83C901B8010F900F900F900F90DF91C8
:102AE000CF911F910F910C945E140F931F93CF936E
:102AF000DF9300D000D0CDB7DEB741E050E060E01A
:102B000070E004C0440F551F661F771F8A95D2F7E7
:102B10008091270290912802A0912902B0912A0267
:102B20008A019B01082719272A273B2709831A8333
:102B30002B833C83C901B8010F900F900F900F9029
:102B4000DF91CF911F910F910C945E14CF93DF937F
:102B500000D000D0CDB7DEB769837A838B839C83A6
:102B60008091270290912802A0912902B0912A0217
:102B700029813A814B815C81282B392B4A2B5B2B95
:102B800029833A834B835C83CA01B9010F900F906C
:102B90000F900F90DF91CF910C945E14CF93DF9341
:102BA00000D000D0CDB7DEB769837A838B839C8356
:102BB0008091270290912802A0912902B0912A02C7
:102BC00029813A814B815C81282339234A235B2365
:102BD00029833A834B835C83CA01B9010F900F901C
:102BE0000F900F90DF91CF910C945E14CF93DF93F1
:102BF00000D000D0CDB7DEB769837A838B839C8306
:102C00008091270290912802A0912902B0912A0276
:102C100029813A814B815C81282739274A275B2704
:102C200029833A834B835C83CA01B9010F900F90CB
:102C30000F900F90DF91CF910C945E140895CF9276
:102C4000DF92EF92FF920F931F93CF93DF938C014C
:102C5000C0902702D0902802E0902902F0902A022A
:102C600080912B0290912C02A0912D02B0912E0206
:102C7000C82AD92AEA2AFB2ACFE1D0E0D701C60127
:102C80000C2E04C0B695A795979587950A94D2F710
:102C900080FF07C0B8018C2F0E9417189C01019774
:102CA00039F4219758F7B80180E00E9417189C0169
:102CB000C901DF91CF911F910F91FF90EF90DF90AD
:102CC000CF90089520910D0130910E01F9013296B7
:102CD0009FEF40E05191851751F09F3F19F451113A
:102CE00001C0942F4F5F4630A9F79F3F09F4089524
:102CF000290F311D97FD3A95F9018283089520919E
:102D00000D0130910E01F9013296285F3F4F9191EC
:102D1000891303C0DF0111971C92E217F307B9F77B
:102D2000089581E090E0E0910D01F0910E01E80F2F
:102D3000F91F1082019688309105A9F708958091B6
:102D40003902089590913902982B90933902089591
:102D5000982F9095809139028923809339020895A4
:102D600080933902089510923902089590913802A3
:102D7000982B909338020895982F9095809138025F
:102D80008923809338020895109238020895809321
:102D90002F02089510922F02089520910D01309175
:102DA0000E01F9013196285F3F4F80E0919191111A
:102DB0008F5FE217F307D1F70895E0910D01F091CD
:102DC0000E01809139028083E0910D01F0910E0196
:102DD000808190913802892B808390912F029923D2
:102DE00061F0E0910D01F0910E018081892B8083CB
:102DF0000E94CD16811110922F0280910D019091A9
:102E00000E010C94320B90935F0180935E01089544
:102E1000829594E0899F900111242C7C869586955B
:102E20008373282B30E0C901880F991F8A7A359562
:102E300027952575822B08950895CF93DF9300D0B1
:102E400000D00F92CDB7DEB70F900F900F900F907C
:102E50000F90DF91CF910895089508950C94C30CBD
:102E6000089510923B0288E190E020E40FB6F894B8
:102E7000A895809360000FBE2093600083B7817F88
:102E8000846083BF83B7816083BF7894889583B75C
:102E90008E7F83BF0FB6F894A895809160008861FB
:102EA00080936000109260000FBE08950895089509
:102EB000CF93DF930E9456170E94F9040E94571780
:102EC000D0E0C0E0CE010E94C306892B41F42196D8
:102ED000C031D105B9F780E0DF91CF91089581E04D
:102EE000FBCF0C94BD101F921FB61F9211248F931D
:102EF0009F93AF93BF9380913B02811113C0809148
:102F00003C0290913D02A0913E02B0913F02419659
:102F1000A11DB11D80933C0290933D02A0933E02FF
:102F2000B0933F02BF91AF919F918F911F901FBEB1
:102F30001F90189582E084BD93E095BD9AEF97BDF0
:102F400080936E0008952FB7F89480913C02909181
:102F50003D02A0913E02B0913F022FBF0895CF9352
:102F6000DF9300D000D0CDB7DEB78FB7F8942091B3
:102F70003C0230913D0240913E0250913F02298334
:102F80003A834B835C838FBF69817A818B819C817B
:102F90000F900F900F900F90DF91CF9108951F9297
:102FA0001FB61F9211248F939F93AF93BF9380916D
:102FB0003C0290913D02A0913E02B0913F020196E9
:102FC000A11DB11D80933C0290933D02A0933E024F
:102FD000B0933F02BF91AF919F918F911F901FBE01
:102FE0001F901895F89481E08093E00080E2809330
:102FF000D8001092C9008FE19EE40197F1F700C05C
:10300000000087E090EBDC01809342029093430242
:10301000A0934402B093450288E19CE00FB6F89477
:10302000A895809360000FBE90936000FFCF0E9430
:10303000BB04803E78F5803C08F03FC0813309F442
:103040007DC070F4893209F472C08A3209F47DC0FF
:10305000843038F521E0813009F020E0822F21C052
:10306000893369F1823859F1853309F459C08D3BB0
:1030700008F472C08F3BB9F50E94BD102FEF80E7B6
:1030800092E0215080409040E1F700C000000E9493
:10309000F21729C0833E69F130F4803EB9F0823ED8
:1030A000E1F090E00895863E59F1873E91F1C8F332
:1030B000803FC8F090E0906508950C94C50490910D
:1030C0004002937071F380EE90E008958091400289
:1030D00080FFF9CF89E390E008958091400282FF5C
:1030E0000CC084FF03C090E080E0089583EE90E080
:1030F00008958091400282FFF4CF82EE90E008951F
:103100008091400283FF09C084FDEDCF87EE90E0FF
:1031100008958091400283FFF7CF86EE90E00895F6
:103120008091400285FF07C089E290E00895809178
:10313000400285FFF9CF85E390E008958091400239
:1031400086FF07C08AE290E008958091400286FFE2
:10315000F9CF81E390E00895883A68F4853A08F45D
:1031600077CF853A19F481E890E40895863A89F09A
:1031700083E890E40895883A79F0E7E5E80F8C3B1E
:1031800071F0F0E0EE0FFF1FE95CFE4F808191814E
:10319000089582E890E4089582EE94E408958AE226
:1031A00096E4089590E080E0089508959F92AF928C
:1031B000BF92CF92DF92EF92FF920F931F93CF9324
:1031C000DF938C01D0E0C0E0CC24C394D12C9C2EA2
:1031D000CE010E94C3067C01B12CA12CC6010A2C91
:1031E00002C0880F991F0A94E2F78E219F21892B34
:1031F00001F16A2D792D80E00E9417189C0180173B
:10320000910751F0832F807E932F907C11F0803AAC
:1032100081F42017110669F481E0DF91CF911F91AD
:103220000F91FF90EF90DF90CF90BF90AF909F9065
:1032300008958FEFA81AB80A88E0A816B10471F6AD
:103240002196C031D10519F680E0E7CFCF93DF9307
:10325000D82FC92F8CE290E00E94D618882331F035
:103260008D2F9C2FDF91CF910C94D61880E0DF91A9
:10327000CF910895CF93DF9300D000D0CDB7DEB7C4
:103280000E94AB1A811102C00E94911A86E093E05D
:103290000E94190425E629839981915099839111FF
:1032A0000AC18FEF92E00E94190489E290E00E9427
:1032B000261981112FC18AE290E00E9426198111FE
:1032C0000E94911A85E090E00E94261981110E94C7
:1032D000F2170E9430170E94B61A80933A0287E0D4
:1032E00090E00E942619882379F08BE190E00E94FB
:1032F0002619882309F4E8C090913A02892F8D7F1E
:1033000091FF826080933A0280913A020E94BA1A39
:103310000E94C81A8093400280EE90E00E94261915
:10332000882341F090914002892F8E7F90FF816029
:103330008093400289E390E00E942619882341F09F
:1033400090914002892F8D7F91FF8260809340028F
:1033500082EE90E00E942619882341F0909140026D
:10336000892F8B7F92FF84608093400286EE90E0ED
:103370000E942619882341F090914002892F877F6F
:1033800093FF88608093400283EE90E00E942619AC
:10339000882341F090914002892F8F7E94FF8061B5
:1033A0008093400285E390E00E942619882341F033
:1033B00090914002892F8F7D95FF8062809340021B
:1033C00081E390E00E942619882341F09091400209
:1033D000892F8F7B96FF80648093400281E190E08B
:1033E0000E942619882341F090914002892F97FB73
:1033F00087F9805880934002809140020E94CC1A45
:1034000087E290E00E94261989838EE190E00E9475
:103410002619882319F0A981A260A9838FE190E081
:103420000E942619882319F0B981B460B98380E21B
:1034300090E00E942619882319F0298128602983A9
:1034400081E290E00E942619882319F039813061C9
:10345000398382E290E00E942619882319F049817D
:103460004062498383E290E00E942619882319F084
:1034700059815064598384E290E00E942619882380
:1034800009F441C089818068898389810E94C31AB7
:103490003981232F30E050E040E029833A834B8389
:1034A0005C83CA01B9010F900F900F900F90DF91CC
:1034B000CF910C946B140E94F9048FE39CE901975F
:1034C000F1F700C00000E8CE8EE090E00E942619DF
:1034D000882339F090913A02892F8B7F92FF846084
:1034E00011CF80E190E00E94261990913A02882342
:1034F00029F0892F877F93FF886004CF892F8E7FE3
:1035000090FF8160FFCE99819111BFCF0E94BF1AB9
:10351000282FC0CF0F900F900F900F90DF91CF9179
:1035200008956DEE7EEF90E080E00E94C31D60E0A4
:1035300082E090E00E94B51D60E083E090E00E9490
:10354000B51D60E084E090E00E94B51D60E085E07C
:1035500090E00C94B51D90E080E00E94AF1D9C01AE
:1035600081E02D3E3E4F09F080E0089582E090E03A
:103570000C94A71D682F82E090E00C94B51D83E0A9
:1035800090E00C94A71D682F83E090E00C94B51D8B
:1035900084E090E00C94A71D682F84E090E00C94E8
:1035A000B51DCF93DF9300D000D0CDB7DEB78983B0
:1035B0001F928F9381E293E09F938F930E94B204B6
:1035C00081E090E0A0E0B0E09C01AD01098004C082
:1035D000220F331F441F551F0A94D2F729833A83C1
:1035E0004B835C83CA01B9010E946B140F900F904A
:1035F0000F900F900F900F900F900F90DF91CF9141
:103600000C94BD10CF938A3258F48630A0F0EAEFC4
:10361000E80FE43280F4F0E0EF50F24E0C949E1D7F
:10362000833478F48A3308F03AC2853309F431C21E
:10363000883309F44DC181E295E00E94190480E0CD
:103640005CC1833409F425C28834A9F70E94BD10F7
:1036500083E697E00E9419049FEF23ED80E39150E9
:1036600020408040E1F700C000000E94F2172EC108
:1036700088E797E00E94190481E195E00E9419040F
:103680000E94BF1A1F928F938EE095E09F938F93B5
:103690000E94B2048CE095E00E9419040E94B61AC0
:1036A000C82F89EF94E00E9419041F92CF9384EFF2
:1036B00094E09F938F930E94B20482EF94E00E9463
:1036C000190488EE94E00E9419048C2F81701F92D7
:1036D0008F9385EE94E09F938F930E94B20483EEC4
:1036E00094E00E94190489ED94E00E941904C1FB42
:1036F000882780F91F928F9386ED94E09F938F9394
:103700000E94B20484ED94E00E94190488EC94E0D5
:103710000E941904C2FB882780F91F928F9385ECC1
:1037200094E09F938F930E94B20483EC94E00E94F4
:1037300019048AEB94E00E941904C3FBCC27C0F95A
:103740001F92CF9387EB94E09F938F930E94B204D4
:1037500085EB94E00E9419040E94C81AC82F81EAE0
:1037600094E00E9419041F92CF938CE994E09F93F8
:103770008F930E94B2048AE994E00E94190481E8C0
:1037800094E00E9419048C2F81701F928F938EE712
:1037900094E09F938F930E94B2048DB79EB780965A
:1037A0000FB6F8949EBF0FBE8DBF8CE794E00E94C9
:1037B000190485E694E00E941904C1FB882780F96A
:1037C0001F928F9382E694E09F938F930E94B2049E
:1037D00080E694E00E9419048EE494E00E941904AB
:1037E000C2FB882780F91F928F938BE494E09F930C
:1037F0008F930E94B20489E494E00E94190487E345
:1038000094E00E941904C3FB882780F91F928F93CC
:1038100084E394E09F938F930E94B20482E394E048
:103820000E94190488E294E00E941904C4FB8827CE
:1038300080F91F928F9385E294E09F938F930E946B
:10384000B20483E294E00E94190481E194E00E94B2
:103850001904C5FB882780F91F928F938EE094E0AE
:103860009F938F930E94B2048CE094E00E9419040D
:1038700080EF93E00E941904C6FB882780F91F920D
:103880008F938DEE93E09F938F930E94B2048BEE03
:1038900093E00E94190483EE93E00E941904C7FB91
:1038A000CC27C0F91F92CF9380EE93E09F938F9324
:1038B0000E94B2048EED93E00E9419048DB79EB76A
:1038C0004C960FB6F8949EBF0FBE8DBF81E015C019
:1038D00081E493E00E941904F9CF80913A02807F3D
:1038E00080933A0286E293E00E94190484E797E00D
:1038F0000E94190481E080934102CF910895809144
:103900003A0280FF0AC086E597E00E941904809180
:103910003A02807F80933A02D9CF8AE497E00E94EE
:10392000190480913A028160F5CF90913A02892F73
:103930008D7F91FF826080933A0281FF03C08DE307
:1039400097E0EDCF8FE297E0C5CF90913A02892FB3
:103950008B7F92FF846080933A0282FF03C080E2F3
:1039600097E0DDCF80E197E0B5CF90913A02892FC3
:10397000877F93FF886080933A0283FF03C084E0CF
:1039800097E0CDCF87EF96E0A5CF88EE96E00E9436
:10399000190489EA96E00E94190482E796E00E94E1
:1039A000190485E496E00E9419048EE096E00E94D6
:1039B000190481EE95E08ECF83ED95E00E94190405
:1039C0000E94260B1F928F9389EB95E09F938F9314
:1039D0000E94B20480910C011F928F9382EA95E0BD
:1039E0009F938F930E94B20480910B011F928F933B
:1039F0008FE895E09F938F930E94B2040E94AF17C7
:103A00009F938F937F936F9388E795E09F938F9316
:103A10000E94B2048091E0001F928F938DE695E0A2
:103A20009F938F930E94B2048091E2001F928F9324
:103A300082E695E09F938F930E94B2048091E1000B
:103A40001F928F9387E595E09F938F930E94B20416
:103A50008091A0011F928F9380E495E09F938F93B4
:103A60000E94B2048DB79EB782960FB6F8949EBF9F
:103A70000FBE8DBF8091A1011F928F9383E295E0CD
:103A80009F938F930E94B2040F900F900F900F900E
:103A90001DCF80E00E94D11A19CF8D51FBCF8953E1
:103AA000F9CF80E008950C94511DCF93C82F8091D9
:103AB0004102882331F08130B1F01092410280E060
:103AC00010C0E0910D01F0910E0180818434B9F7AE
:103AD0008C2F0E94511D81111EC08C2F0E94021B31
:103AE0008170CF910895E0910D01F0910E018081D8
:103AF000843471F38C2F0E94531D811119C0C93277
:103B0000C9F060F4CB3061F0C431A1F08BE193E0F7
:103B10000E94190411C081E090E0E2CFC833B1F7F0
:103B200086E293E00E9419048DE193E00E9419045B
:103B300081E0D6CF1092410280E0D2CFEE0FFF1F7E
:103B40000024001C0BBE0790F691E02D0994F99912
:103B5000FECF92BD81BDF89A992780B50895A8E15E
:103B6000B0E042E050E00C94CA1D262FF999FECF38
:103B70001FBA92BD81BD20BD0FB6F894FA9AF99A8A
:103B80000FBE019608950E94B51D272F0C94B61DF7
:103B9000DC01CB01FC01F999FECF06C0F2BDE1BD0D
:103BA000F89A319600B40D9241505040B8F70895FC
:103BB000F894FFCFA406A706AA06AD06B006B30682
:103BC000B606AF0DAF0DED0DED0D760E9E0D9E0DF3
:103BD0009E0DAE0E9E0DD00FD00F6B109E0D9E0D44
:103BE00083106D1C7F1C381B1B1B1B1B681C1B1BA5
:103BF0001B1BA51C1B1BB51C1B1B1B1B1B1B1B1BEF
:103C00001B1BDC1C1B1B1B1BC51C1B1B951C1B1B1C
:103C10001B1B4D1D4D1D4D1D4D1D4D1D4D1D4D1D88
:0A3C20004D1D4D1D491D1B1B491DC4
:103C2A000A73077B077607790777077D013002E277
:103C3A0000E900EA00B500B600B300B400B700CD51
:103C4A0000CC0083018A01920194012102230224FB
:103C5A0002250226022702E944EA44B544B644B3DF
:103C6A0044B444B744CD44CC4483458A45924594F0
:0E3C7A00452146234624462546264627460079
:00000001FF
